{
  "_format": "hh-sol-artifact-1",
  "contractName": "CompetitionFactory",
  "sourceName": "contracts/src/competition/CompetitionFactory.sol",
  "abi": [
    {
      "inputs": [
        {
          "internalType": "address",
          "name": "_owner",
          "type": "address"
        }
      ],
      "stateMutability": "nonpayable",
      "type": "constructor"
    },
    {
      "inputs": [
        {
          "internalType": "bytes32",
          "name": "_competitionId",
          "type": "bytes32"
        }
      ],
      "name": "CompetitionAlreadyExists",
      "type": "error"
    },
    {
      "inputs": [],
      "name": "ErrorCreatingContract",
      "type": "error"
    },
    {
      "inputs": [],
      "name": "ErrorCreatingProxy",
      "type": "error"
    },
    {
      "inputs": [
        {
          "internalType": "uint256",
          "name": "_size",
          "type": "uint256"
        },
        {
          "internalType": "uint256",
          "name": "_start",
          "type": "uint256"
        },
        {
          "internalType": "uint256",
          "name": "_end",
          "type": "uint256"
        }
      ],
      "name": "InvalidCodeAtRange",
      "type": "error"
    },
    {
      "inputs": [
        {
          "internalType": "enum CompetitionImpl",
          "name": "_competitionImpl",
          "type": "uint8"
        }
      ],
      "name": "InvalidCompetitionImpl",
      "type": "error"
    },
    {
      "inputs": [
        {
          "internalType": "enum CompetitionImpl",
          "name": "_competitionImpl",
          "type": "uint8"
        }
      ],
      "name": "NoCreationCodeForImpl",
      "type": "error"
    },
    {
      "inputs": [],
      "name": "TargetAlreadyExists",
      "type": "error"
    },
    {
      "inputs": [],
      "name": "WriteError",
      "type": "error"
    },
    {
      "anonymous": false,
      "inputs": [
        {
          "indexed": false,
          "internalType": "address",
          "name": "sender",
          "type": "address"
        },
        {
          "indexed": true,
          "internalType": "bytes32",
          "name": "competitionId",
          "type": "bytes32"
        },
        {
          "indexed": true,
          "internalType": "address",
          "name": "addr",
          "type": "address"
        },
        {
          "indexed": false,
          "internalType": "enum CompetitionImpl",
          "name": "impl",
          "type": "uint8"
        }
      ],
      "name": "CompetitionCreated",
      "type": "event"
    },
    {
      "anonymous": false,
      "inputs": [
        {
          "indexed": true,
          "internalType": "address",
          "name": "previousOwner",
          "type": "address"
        },
        {
          "indexed": true,
          "internalType": "address",
          "name": "newOwner",
          "type": "address"
        }
      ],
      "name": "OwnershipTransferred",
      "type": "event"
    },
    {
      "inputs": [
        {
          "internalType": "bytes32",
          "name": "_competitionId",
          "type": "bytes32"
        },
        {
          "internalType": "string",
          "name": "_competitionName",
          "type": "string"
        },
        {
          "internalType": "uint16",
          "name": "_numTeams",
          "type": "uint16"
        },
        {
          "internalType": "uint64",
          "name": "_startingEpoch",
          "type": "uint64"
        },
        {
          "internalType": "uint64",
          "name": "_expirationEpoch",
          "type": "uint64"
        },
        {
          "internalType": "string[]",
          "name": "_teamNames",
          "type": "string[]"
        },
        {
          "internalType": "string",
          "name": "_bannerURI",
          "type": "string"
        }
      ],
      "name": "createCompetition",
      "outputs": [
        {
          "internalType": "address",
          "name": "addr_",
          "type": "address"
        }
      ],
      "stateMutability": "nonpayable",
      "type": "function"
    },
    {
      "inputs": [
        {
          "internalType": "bytes32",
          "name": "_competitionId",
          "type": "bytes32"
        },
        {
          "internalType": "string",
          "name": "_competitionName",
          "type": "string"
        },
        {
          "internalType": "uint16",
          "name": "_numTeams",
          "type": "uint16"
        },
        {
          "internalType": "uint64",
          "name": "_startingEpoch",
          "type": "uint64"
        },
        {
          "internalType": "uint64",
          "name": "_expirationEpoch",
          "type": "uint64"
        },
        {
          "internalType": "string[]",
          "name": "_teamNames",
          "type": "string[]"
        },
        {
          "internalType": "string",
          "name": "_bannerURI",
          "type": "string"
        },
        {
          "internalType": "uint16",
          "name": "_totalPointsPerRound",
          "type": "uint16"
        },
        {
          "components": [
            {
              "internalType": "bool",
              "name": "isNetworkToken",
              "type": "bool"
            },
            {
              "internalType": "address",
              "name": "paymentToken",
              "type": "address"
            },
            {
              "internalType": "uint256",
              "name": "fee",
              "type": "uint256"
            }
          ],
          "internalType": "struct RegistrationFeeInfo",
          "name": "_feeInfo",
          "type": "tuple"
        }
      ],
      "name": "createPaidPredictableCompetition",
      "outputs": [
        {
          "internalType": "address",
          "name": "addr_",
          "type": "address"
        }
      ],
      "stateMutability": "nonpayable",
      "type": "function"
    },
    {
      "inputs": [
        {
          "internalType": "bytes32",
          "name": "_competitionId",
          "type": "bytes32"
        },
        {
          "internalType": "string",
          "name": "_competitionName",
          "type": "string"
        },
        {
          "internalType": "uint16",
          "name": "_numTeams",
          "type": "uint16"
        },
        {
          "internalType": "uint64",
          "name": "_startingEpoch",
          "type": "uint64"
        },
        {
          "internalType": "uint64",
          "name": "_expirationEpoch",
          "type": "uint64"
        },
        {
          "internalType": "string[]",
          "name": "_teamNames",
          "type": "string[]"
        },
        {
          "internalType": "string",
          "name": "_bannerURI",
          "type": "string"
        },
        {
          "internalType": "uint16",
          "name": "_totalPointsPerRound",
          "type": "uint16"
        }
      ],
      "name": "createPredictableCompetition",
      "outputs": [
        {
          "internalType": "address",
          "name": "addr_",
          "type": "address"
        }
      ],
      "stateMutability": "nonpayable",
      "type": "function"
    },
    {
      "inputs": [
        {
          "internalType": "bytes32",
          "name": "_competitionId",
          "type": "bytes32"
        }
      ],
      "name": "getCompetitionAddress",
      "outputs": [
        {
          "internalType": "address",
          "name": "addr_",
          "type": "address"
        }
      ],
      "stateMutability": "view",
      "type": "function"
    },
    {
      "inputs": [
        {
          "internalType": "bytes32",
          "name": "_competitionId",
          "type": "bytes32"
        }
      ],
      "name": "getCompetitionImplType",
      "outputs": [
        {
          "internalType": "enum CompetitionImpl",
          "name": "impl_",
          "type": "uint8"
        }
      ],
      "stateMutability": "view",
      "type": "function"
    },
    {
      "inputs": [
        {
          "internalType": "bytes32",
          "name": "_competitionId",
          "type": "bytes32"
        }
      ],
      "name": "getCompetitionInfo",
      "outputs": [
        {
          "components": [
            {
              "internalType": "address",
              "name": "addr",
              "type": "address"
            },
            {
              "internalType": "enum CompetitionImpl",
              "name": "impl",
              "type": "uint8"
            }
          ],
          "internalType": "struct CompetitionInfo",
          "name": "info_",
          "type": "tuple"
        }
      ],
      "stateMutability": "view",
      "type": "function"
    },
    {
      "inputs": [],
      "name": "owner",
      "outputs": [
        {
          "internalType": "address",
          "name": "",
          "type": "address"
        }
      ],
      "stateMutability": "view",
      "type": "function"
    },
    {
      "inputs": [],
      "name": "renounceOwnership",
      "outputs": [],
      "stateMutability": "nonpayable",
      "type": "function"
    },
    {
      "inputs": [
        {
          "internalType": "enum CompetitionImpl",
          "name": "_impl",
          "type": "uint8"
        },
        {
          "internalType": "bytes",
          "name": "_code",
          "type": "bytes"
        }
      ],
      "name": "setContractCode",
      "outputs": [],
      "stateMutability": "nonpayable",
      "type": "function"
    },
    {
      "inputs": [
        {
          "internalType": "uint256",
          "name": "_feeBps",
          "type": "uint256"
        }
      ],
      "name": "setProtocolFee",
      "outputs": [],
      "stateMutability": "nonpayable",
      "type": "function"
    },
    {
      "inputs": [
        {
          "internalType": "address",
          "name": "newOwner",
          "type": "address"
        }
      ],
      "name": "transferOwnership",
      "outputs": [],
      "stateMutability": "nonpayable",
      "type": "function"
    }
  ],
  "bytecode": "0x60806040523480156200001157600080fd5b5060405162002b4e38038062002b4e8339818101604052810190620000379190620002f5565b620000576200004b6200006f60201b60201c565b6200007760201b60201c565b62000068816200013b60201b60201c565b5062000442565b600033905090565b60008060009054906101000a900473ffffffffffffffffffffffffffffffffffffffff169050816000806101000a81548173ffffffffffffffffffffffffffffffffffffffff021916908373ffffffffffffffffffffffffffffffffffffffff1602179055508173ffffffffffffffffffffffffffffffffffffffff168173ffffffffffffffffffffffffffffffffffffffff167f8be0079c531659141344cd1fd0a4f28419497f9722a3daafe3b4186f6b6457e060405160405180910390a35050565b6200014b620001d160201b60201c565b600073ffffffffffffffffffffffffffffffffffffffff168173ffffffffffffffffffffffffffffffffffffffff1603620001bd576040517f08c379a0000000000000000000000000000000000000000000000000000000008152600401620001b490620003ae565b60405180910390fd5b620001ce816200007760201b60201c565b50565b620001e16200006f60201b60201c565b73ffffffffffffffffffffffffffffffffffffffff16620002076200026260201b60201c565b73ffffffffffffffffffffffffffffffffffffffff161462000260576040517f08c379a0000000000000000000000000000000000000000000000000000000008152600401620002579062000420565b60405180910390fd5b565b60008060009054906101000a900473ffffffffffffffffffffffffffffffffffffffff16905090565b600080fd5b600073ffffffffffffffffffffffffffffffffffffffff82169050919050565b6000620002bd8262000290565b9050919050565b620002cf81620002b0565b8114620002db57600080fd5b50565b600081519050620002ef81620002c4565b92915050565b6000602082840312156200030e576200030d6200028b565b5b60006200031e84828501620002de565b91505092915050565b600082825260208201905092915050565b7f4f776e61626c653a206e6577206f776e657220697320746865207a65726f206160008201527f6464726573730000000000000000000000000000000000000000000000000000602082015250565b60006200039660268362000327565b9150620003a38262000338565b604082019050919050565b60006020820190508181036000830152620003c98162000387565b9050919050565b7f4f776e61626c653a2063616c6c6572206973206e6f7420746865206f776e6572600082015250565b60006200040860208362000327565b91506200041582620003d0565b602082019050919050565b600060208201905081810360008301526200043b81620003f9565b9050919050565b6126fc80620004526000396000f3fe608060405234801561001057600080fd5b50600436106100a95760003560e01c80638da5cb5b116100715780638da5cb5b14610150578063a78563a41461016e578063be0f3a6e1461019e578063c6767868146101ce578063d270a3fe146101fe578063f2fde38b1461022e576100a9565b806323907bc0146100ae5780633740f3a1146100de5780634e5653a71461010e578063715018a61461012a578063787dce3d14610134575b600080fd5b6100c860048036038101906100c39190611337565b61024a565b6040516100d591906113db565b60405180910390f35b6100f860048036038101906100f391906116f7565b610277565b6040516101059190611846565b60405180910390f35b61012860048036038101906101239190611927565b61049c565b005b610132610526565b005b61014e600480360381019061014991906119b9565b61053a565b005b61015861054c565b6040516101659190611846565b60405180910390f35b61018860048036038101906101839190611a0a565b610575565b6040516101959190611846565b60405180910390f35b6101b860048036038101906101b39190611337565b61077e565b6040516101c59190611846565b60405180910390f35b6101e860048036038101906101e39190611b2d565b6107be565b6040516101f59190611846565b60405180910390f35b61021860048036038101906102139190611337565b6109e0565b6040516102259190611c74565b60405180910390f35b61024860048036038101906102439190611cbb565b610a9e565b005b60006001600083815260200190815260200160002060000160149054906101000a900460ff169050919050565b6000806102838b610b21565b905060018160000160146101000a81548160ff021916908360038111156102ad576102ac611364565b5b02179055506103248b6102c06002610bd2565b306040516020016102d19190611846565b6040516020818303038152906040526040516020016102f1929190611d59565b6040516020818303038152906040526040516020016103109190611d7d565b604051602081830303815290604052610d03565b8160000160006101000a81548173ffffffffffffffffffffffffffffffffffffffff021916908373ffffffffffffffffffffffffffffffffffffffff1602179055508060000160009054906101000a900473ffffffffffffffffffffffffffffffffffffffff1673ffffffffffffffffffffffffffffffffffffffff1663e04a9a90338c8c8c8c8c8c8c8c6040518a63ffffffff1660e01b81526004016103d399989796959493929190611f40565b600060405180830381600087803b1580156103ed57600080fd5b505af1158015610401573d6000803e3d6000fd5b505050508060000160009054906101000a900473ffffffffffffffffffffffffffffffffffffffff1691508173ffffffffffffffffffffffffffffffffffffffff168b7f64e94cdca471fd0e9f6e113ae6ddeac3283f6c92da8fa52845aa2b21a4491eb8338460000160149054906101000a900460ff16604051610486929190611fd5565b60405180910390a3509998505050505050505050565b6104a4610d19565b6104ad81610d97565b600260008460038111156104c4576104c3611364565b5b60038111156104d6576104d5611364565b5b815260200190815260200160002060006101000a81548173ffffffffffffffffffffffffffffffffffffffff021916908373ffffffffffffffffffffffffffffffffffffffff1602179055505050565b61052e610d19565b6105386000610e3b565b565b610542610d19565b8060038190555050565b60008060009054906101000a900473ffffffffffffffffffffffffffffffffffffffff16905090565b6000806105818c610b21565b905060038160000160146101000a81548160ff021916908360038111156105ab576105aa611364565b5b02179055506106038c6105be6003610bd2565b306040516020016105cf9190611846565b6040516020818303038152906040526040516020016105ef929190611d59565b604051602081830303815290604052610d03565b8160000160006101000a81548173ffffffffffffffffffffffffffffffffffffffff021916908373ffffffffffffffffffffffffffffffffffffffff1602179055508060000160009054906101000a900473ffffffffffffffffffffffffffffffffffffffff1673ffffffffffffffffffffffffffffffffffffffff1663e3591fb8338d8d8d8d8d8d8d8d8d6040518b63ffffffff1660e01b81526004016106b49a999897969594939291906120f3565b600060405180830381600087803b1580156106ce57600080fd5b505af11580156106e2573d6000803e3d6000fd5b505050508060000160009054906101000a900473ffffffffffffffffffffffffffffffffffffffff1691508173ffffffffffffffffffffffffffffffffffffffff168c7f64e94cdca471fd0e9f6e113ae6ddeac3283f6c92da8fa52845aa2b21a4491eb8338460000160149054906101000a900460ff16604051610767929190611fd5565b60405180910390a3509a9950505050505050505050565b60006001600083815260200190815260200160002060000160009054906101000a900473ffffffffffffffffffffffffffffffffffffffff169050919050565b6000806107ca8a610b21565b905060018160000160146101000a81548160ff021916908360038111156107f4576107f3611364565b5b021790555061086b8a6108076001610bd2565b306040516020016108189190611846565b604051602081830303815290604052604051602001610838929190611d59565b6040516020818303038152906040526040516020016108579190611d7d565b604051602081830303815290604052610d03565b8160000160006101000a81548173ffffffffffffffffffffffffffffffffffffffff021916908373ffffffffffffffffffffffffffffffffffffffff1602179055508060000160009054906101000a900473ffffffffffffffffffffffffffffffffffffffff1673ffffffffffffffffffffffffffffffffffffffff1663b093c517338b8b8b8b8b8b8b6040518963ffffffff1660e01b8152600401610918989796959493929190612197565b600060405180830381600087803b15801561093257600080fd5b505af1158015610946573d6000803e3d6000fd5b505050508060000160009054906101000a900473ffffffffffffffffffffffffffffffffffffffff1691508173ffffffffffffffffffffffffffffffffffffffff168a7f64e94cdca471fd0e9f6e113ae6ddeac3283f6c92da8fa52845aa2b21a4491eb8338460000160149054906101000a900460ff166040516109cb929190611fd5565b60405180910390a35098975050505050505050565b6109e86112ab565b600160008381526020019081526020016000206040518060400160405290816000820160009054906101000a900473ffffffffffffffffffffffffffffffffffffffff1673ffffffffffffffffffffffffffffffffffffffff1673ffffffffffffffffffffffffffffffffffffffff1681526020016000820160149054906101000a900460ff166003811115610a8157610a80611364565b5b6003811115610a9357610a92611364565b5b815250509050919050565b610aa6610d19565b600073ffffffffffffffffffffffffffffffffffffffff168173ffffffffffffffffffffffffffffffffffffffff1603610b15576040517f08c379a0000000000000000000000000000000000000000000000000000000008152600401610b0c9061228f565b60405180910390fd5b610b1e81610e3b565b50565b6000600160008381526020019081526020016000209050600073ffffffffffffffffffffffffffffffffffffffff168160000160009054906101000a900473ffffffffffffffffffffffffffffffffffffffff1673ffffffffffffffffffffffffffffffffffffffff1614610bcd57816040517f7078b656000000000000000000000000000000000000000000000000000000008152600401610bc491906122be565b60405180910390fd5b919050565b6060600073ffffffffffffffffffffffffffffffffffffffff1660026000846003811115610c0357610c02611364565b5b6003811115610c1557610c14611364565b5b815260200190815260200160002060009054906101000a900473ffffffffffffffffffffffffffffffffffffffff1673ffffffffffffffffffffffffffffffffffffffff1603610c9c57816040517fff5c345d000000000000000000000000000000000000000000000000000000008152600401610c9391906113db565b60405180910390fd5b610cfc60026000846003811115610cb657610cb5611364565b5b6003811115610cc857610cc7611364565b5b815260200190815260200160002060009054906101000a900473ffffffffffffffffffffffffffffffffffffffff16610eff565b9050919050565b6000610d1183836000610f34565b905092915050565b610d216110f4565b73ffffffffffffffffffffffffffffffffffffffff16610d3f61054c565b73ffffffffffffffffffffffffffffffffffffffff1614610d95576040517f08c379a0000000000000000000000000000000000000000000000000000000008152600401610d8c90612325565b60405180910390fd5b565b600080610dc283604051602001610dae919061237c565b6040516020818303038152906040526110fc565b90508051602082016000f09150600073ffffffffffffffffffffffffffffffffffffffff168273ffffffffffffffffffffffffffffffffffffffff1603610e35576040517f08d4abb600000000000000000000000000000000000000000000000000000000815260040160405180910390fd5b50919050565b60008060009054906101000a900473ffffffffffffffffffffffffffffffffffffffff169050816000806101000a81548173ffffffffffffffffffffffffffffffffffffffff021916908373ffffffffffffffffffffffffffffffffffffffff1602179055508173ffffffffffffffffffffffffffffffffffffffff168173ffffffffffffffffffffffffffffffffffffffff167f8be0079c531659141344cd1fd0a4f28419497f9722a3daafe3b4186f6b6457e060405160405180910390a35050565b6060610f2d8260017fffffffffffffffffffffffffffffffffffffffffffffffffffffffffffffffff611128565b9050919050565b6000806040518060400160405280601081526020017f67363d3d37363d34f03d5260086018f3000000000000000000000000000000008152509050610f788561120d565b91506000610f8583611295565b14610fbc576040517fcd43efa100000000000000000000000000000000000000000000000000000000815260040160405180910390fd5b6000858251602084016000f59050600073ffffffffffffffffffffffffffffffffffffffff168173ffffffffffffffffffffffffffffffffffffffff1603611030576040517fbbd2fe8700000000000000000000000000000000000000000000000000000000815260040160405180910390fd5b60008173ffffffffffffffffffffffffffffffffffffffff1685876040516110589190611d7d565b60006040518083038185875af1925050503d8060008114611095576040519150601f19603f3d011682016040523d82523d6000602084013e61109a565b606091505b505090508015806110b3575060006110b185611295565b145b156110ea576040517f53de54b900000000000000000000000000000000000000000000000000000000815260040160405180910390fd5b5050509392505050565b600033905090565b606081518260405160200161111292919061247c565b6040516020818303038152906040529050919050565b60606000611135856112a0565b9050600081036111575760405180602001604052806000815250915050611206565b808411156111775760405180602001604052806000815250915050611206565b838310156111c0578084846040517f2c4a89fa0000000000000000000000000000000000000000000000000000000081526004016111b7939291906124c9565b60405180910390fd5b600084840390506000858303905060008282106111dd57826111df565b815b90506040519450601f19601f60208301011685016040528085528087602087018a3c505050505b9392505050565b60008030837f21c35dbe1b344a2488cf3321d6ce542f8e9f305544ff09e4993a62319a497c1f60001b604051602001611248939291906125b5565b6040516020818303038152906040528051906020012060001c9050806040516020016112749190612695565b6040516020818303038152906040528051906020012060001c915050919050565b6000813b9050919050565b6000813b9050919050565b6040518060400160405280600073ffffffffffffffffffffffffffffffffffffffff168152602001600060038111156112e7576112e6611364565b5b81525090565b6000604051905090565b600080fd5b600080fd5b6000819050919050565b61131481611301565b811461131f57600080fd5b50565b6000813590506113318161130b565b92915050565b60006020828403121561134d5761134c6112f7565b5b600061135b84828501611322565b91505092915050565b7f4e487b7100000000000000000000000000000000000000000000000000000000600052602160045260246000fd5b600481106113a4576113a3611364565b5b50565b60008190506113b582611393565b919050565b60006113c5826113a7565b9050919050565b6113d5816113ba565b82525050565b60006020820190506113f060008301846113cc565b92915050565b600080fd5b600080fd5b600080fd5b60008083601f84011261141b5761141a6113f6565b5b8235905067ffffffffffffffff811115611438576114376113fb565b5b60208301915083600182028301111561145457611453611400565b5b9250929050565b600061ffff82169050919050565b6114728161145b565b811461147d57600080fd5b50565b60008135905061148f81611469565b92915050565b600067ffffffffffffffff82169050919050565b6114b281611495565b81146114bd57600080fd5b50565b6000813590506114cf816114a9565b92915050565b6000601f19601f8301169050919050565b7f4e487b7100000000000000000000000000000000000000000000000000000000600052604160045260246000fd5b61151e826114d5565b810181811067ffffffffffffffff8211171561153d5761153c6114e6565b5b80604052505050565b60006115506112ed565b905061155c8282611515565b919050565b600067ffffffffffffffff82111561157c5761157b6114e6565b5b602082029050602081019050919050565b600080fd5b600067ffffffffffffffff8211156115ad576115ac6114e6565b5b6115b6826114d5565b9050602081019050919050565b82818337600083830152505050565b60006115e56115e084611592565b611546565b9050828152602081018484840111156116015761160061158d565b5b61160c8482856115c3565b509392505050565b600082601f830112611629576116286113f6565b5b81356116398482602086016115d2565b91505092915050565b600061165561165084611561565b611546565b9050808382526020820190506020840283018581111561167857611677611400565b5b835b818110156116bf57803567ffffffffffffffff81111561169d5761169c6113f6565b5b8086016116aa8982611614565b8552602085019450505060208101905061167a565b5050509392505050565b600082601f8301126116de576116dd6113f6565b5b81356116ee848260208601611642565b91505092915050565b60008060008060008060008060006101008a8c03121561171a576117196112f7565b5b60006117288c828d01611322565b99505060208a013567ffffffffffffffff811115611749576117486112fc565b5b6117558c828d01611405565b985098505060406117688c828d01611480565b96505060606117798c828d016114c0565b955050608061178a8c828d016114c0565b94505060a08a013567ffffffffffffffff8111156117ab576117aa6112fc565b5b6117b78c828d016116c9565b93505060c08a013567ffffffffffffffff8111156117d8576117d76112fc565b5b6117e48c828d01611614565b92505060e06117f58c828d01611480565b9150509295985092959850929598565b600073ffffffffffffffffffffffffffffffffffffffff82169050919050565b600061183082611805565b9050919050565b61184081611825565b82525050565b600060208201905061185b6000830184611837565b92915050565b6004811061186e57600080fd5b50565b60008135905061188081611861565b92915050565b600067ffffffffffffffff8211156118a1576118a06114e6565b5b6118aa826114d5565b9050602081019050919050565b60006118ca6118c584611886565b611546565b9050828152602081018484840111156118e6576118e561158d565b5b6118f18482856115c3565b509392505050565b600082601f83011261190e5761190d6113f6565b5b813561191e8482602086016118b7565b91505092915050565b6000806040838503121561193e5761193d6112f7565b5b600061194c85828601611871565b925050602083013567ffffffffffffffff81111561196d5761196c6112fc565b5b611979858286016118f9565b9150509250929050565b6000819050919050565b61199681611983565b81146119a157600080fd5b50565b6000813590506119b38161198d565b92915050565b6000602082840312156119cf576119ce6112f7565b5b60006119dd848285016119a4565b91505092915050565b600080fd5b600060608284031215611a0157611a006119e6565b5b81905092915050565b6000806000806000806000806000806101608b8d031215611a2e57611a2d6112f7565b5b6000611a3c8d828e01611322565b9a505060208b013567ffffffffffffffff811115611a5d57611a5c6112fc565b5b611a698d828e01611405565b99509950506040611a7c8d828e01611480565b9750506060611a8d8d828e016114c0565b9650506080611a9e8d828e016114c0565b95505060a08b013567ffffffffffffffff811115611abf57611abe6112fc565b5b611acb8d828e016116c9565b94505060c08b013567ffffffffffffffff811115611aec57611aeb6112fc565b5b611af88d828e01611614565b93505060e0611b098d828e01611480565b925050610100611b1b8d828e016119eb565b9150509295989b9194979a5092959850565b60008060008060008060008060e0898b031215611b4d57611b4c6112f7565b5b6000611b5b8b828c01611322565b985050602089013567ffffffffffffffff811115611b7c57611b7b6112fc565b5b611b888b828c01611405565b97509750506040611b9b8b828c01611480565b9550506060611bac8b828c016114c0565b9450506080611bbd8b828c016114c0565b93505060a089013567ffffffffffffffff811115611bde57611bdd6112fc565b5b611bea8b828c016116c9565b92505060c089013567ffffffffffffffff811115611c0b57611c0a6112fc565b5b611c178b828c01611614565b9150509295985092959890939650565b611c3081611825565b82525050565b611c3f816113ba565b82525050565b604082016000820151611c5b6000850182611c27565b506020820151611c6e6020850182611c36565b50505050565b6000604082019050611c896000830184611c45565b92915050565b611c9881611825565b8114611ca357600080fd5b50565b600081359050611cb581611c8f565b92915050565b600060208284031215611cd157611cd06112f7565b5b6000611cdf84828501611ca6565b91505092915050565b600081519050919050565b600081905092915050565b60005b83811015611d1c578082015181840152602081019050611d01565b60008484015250505050565b6000611d3382611ce8565b611d3d8185611cf3565b9350611d4d818560208601611cfe565b80840191505092915050565b6000611d658285611d28565b9150611d718284611d28565b91508190509392505050565b6000611d898284611d28565b915081905092915050565b600082825260208201905092915050565b6000611db18385611d94565b9350611dbe8385846115c3565b611dc7836114d5565b840190509392505050565b611ddb8161145b565b82525050565b611dea81611495565b82525050565b600081519050919050565b600082825260208201905092915050565b6000819050602082019050919050565b600081519050919050565b600082825260208201905092915050565b6000611e4382611e1c565b611e4d8185611e27565b9350611e5d818560208601611cfe565b611e66816114d5565b840191505092915050565b6000611e7d8383611e38565b905092915050565b6000602082019050919050565b6000611e9d82611df0565b611ea78185611dfb565b935083602082028501611eb985611e0c565b8060005b85811015611ef55784840389528151611ed68582611e71565b9450611ee183611e85565b925060208a01995050600181019050611ebd565b50829750879550505050505092915050565b6000611f1282611e1c565b611f1c8185611d94565b9350611f2c818560208601611cfe565b611f35816114d5565b840191505092915050565b600061010082019050611f56600083018c611837565b8181036020830152611f69818a8c611da5565b9050611f786040830189611dd2565b611f856060830188611de1565b611f926080830187611de1565b81810360a0830152611fa48186611e92565b905081810360c0830152611fb88185611f07565b9050611fc760e0830184611dd2565b9a9950505050505050505050565b6000604082019050611fea6000830185611837565b611ff760208301846113cc565b9392505050565b60008115159050919050565b61201381611ffe565b811461201e57600080fd5b50565b6000813590506120308161200a565b92915050565b60006120456020840184612021565b905092915050565b61205681611ffe565b82525050565b600061206b6020840184611ca6565b905092915050565b600061208260208401846119a4565b905092915050565b61209381611983565b82525050565b606082016120aa6000830183612036565b6120b7600085018261204d565b506120c5602083018361205c565b6120d26020850182611c27565b506120e06040830183612073565b6120ed604085018261208a565b50505050565b600061016082019050612109600083018d611837565b818103602083015261211c818b8d611da5565b905061212b604083018a611dd2565b6121386060830189611de1565b6121456080830188611de1565b81810360a08301526121578187611e92565b905081810360c083015261216b8186611f07565b905061217a60e0830185611dd2565b612188610100830184612099565b9b9a5050505050505050505050565b600060e0820190506121ac600083018b611837565b81810360208301526121bf81898b611da5565b90506121ce6040830188611dd2565b6121db6060830187611de1565b6121e86080830186611de1565b81810360a08301526121fa8185611e92565b905081810360c083015261220e8184611f07565b90509998505050505050505050565b7f4f776e61626c653a206e6577206f776e657220697320746865207a65726f206160008201527f6464726573730000000000000000000000000000000000000000000000000000602082015250565b6000612279602683611d94565b91506122848261221d565b604082019050919050565b600060208201905081810360008301526122a88161226c565b9050919050565b6122b881611301565b82525050565b60006020820190506122d360008301846122af565b92915050565b7f4f776e61626c653a2063616c6c6572206973206e6f7420746865206f776e6572600082015250565b600061230f602083611d94565b915061231a826122d9565b602082019050919050565b6000602082019050818103600083015261233e81612302565b9050919050565b600081905092915050565b60008082015250565b6000612366600183612345565b915061237182612350565b600182019050919050565b600061238782612359565b91506123938284611d28565b915081905092915050565b7f6300000000000000000000000000000000000000000000000000000000000000600082015250565b60006123d4600183612345565b91506123df8261239e565b600182019050919050565b600063ffffffff82169050919050565b60008160e01b9050919050565b6000612412826123fa565b9050919050565b61242a612425826123ea565b612407565b82525050565b7f80600e6000396000f30000000000000000000000000000000000000000000000600082015250565b6000612466600983612345565b915061247182612430565b600982019050919050565b6000612487826123c7565b91506124938285612419565b6004820191506124a282612459565b91506124ae8284611d28565b91508190509392505050565b6124c381611983565b82525050565b60006060820190506124de60008301866124ba565b6124eb60208301856124ba565b6124f860408301846124ba565b949350505050565b7fff00000000000000000000000000000000000000000000000000000000000000600082015250565b6000612536600183612345565b915061254182612500565b600182019050919050565b60008160601b9050919050565b60006125648261254c565b9050919050565b600061257682612559565b9050919050565b61258e61258982611825565b61256b565b82525050565b6000819050919050565b6125af6125aa82611301565b612594565b82525050565b60006125c082612529565b91506125cc828661257d565b6014820191506125dc828561259e565b6020820191506125ec828461259e565b602082019150819050949350505050565b7fd694000000000000000000000000000000000000000000000000000000000000600082015250565b6000612633600283612345565b915061263e826125fd565b600282019050919050565b7f0100000000000000000000000000000000000000000000000000000000000000600082015250565b600061267f600183612345565b915061268a82612649565b600182019050919050565b60006126a082612626565b91506126ac828461257d565b6014820191506126bb82612672565b91508190509291505056fea2646970667358221220a04739fd466113ee7fa7b044861bb0ddfbfefbd88481cb9dd05285bf4da76f3a64736f6c63430008110033",
  "linkReferences": {},
  "deployedLinkReferences": {}
}